S01E00004F76696E67315F54544B343135355F4731375F4831372E7372656394
S11300000C9438000C9455000C9455000C94550035
S11300100C9455000C9455000C9455000C94550008
S11300200C9455000C9455000C9455000C945500F8
S11300300C9455000C9455000C9455000C945500E8
S11300400C9455000C9455000C9455000C945500D8
S11300500C9455000C9455000C9455000C945500C8
S11300600C9455000C9455000C9455000C945500B8
S113007011241FBECFEFD4E0DEBFCDBF11E0A0E05E
S1130080B1E0E6EEFBE002C005900D92AA30B107A4
S1130090D9F721E0AAE0B1E001C01D92A431B20772
S11300A0E1F70E948E000C94F1050C940000805836
S11300B09109BC01882777FD8095982F0E94AA009A
S11300C020E030E048EC52E40E94E50020E030E01B
S11300D040E05CE30E94E5009F938F937F936F93CE
S11300E086E091E09F938F930E94E4010F900F901C
S11300F00F900F900F900F9080E090E0089585B7D7
S1130100806885BFC0E0D4E114E11883888192E55A
S11301109A95F1F790E00E945700F7CF8FE190E0B5
S11301200E949D000E947F005D9BFECF8CB90895C4
S11301305F9BFECF8CB190E0089590BD89B988E1B2
S11301408AB968E970E084E990E00E949901089511
S1130150E89409C097FB3EF490958095709561955D
S11301607F4F8F4F9F4F9923A9F0F92F96E9BB2713
S11301709395F695879577956795B795F111F8CF8F
S1130180FAF4BB0F11F460FF1BC06F5F7F4F8F4FFA
S11301909F4F16C0882311F096E911C0772321F0F0
S11301A09EE8872F762F05C0662371F096E8862F88
S11301B070E060E02AF09A95660F771F881FDAF7DF
S11301C0880F9695879597F908950BD078C069D0D4
S11301D028F06ED018F0952309F05AC05FC011249E
S11301E0A2C07ED0A0F3959FD1F3950F50E0551F88
S11301F0629FF001729FBB27F00DB11D639FAA2778
S1130200F00DB11DAA1F649F6627B00DA11D661FC6
S1130210829F2227B00DA11D621F739FB00DA11DE7
S1130220621F839FA00D611D221F749F3327A00DA1
S1130230611D231F849F600D211D822F762F6A2F3D
S113024011249F5750408AF0E1F088234AF0EE0FC2
S1130250FF1FBB1F661F771F881F91505040A9F7CF
S11302609E3F510570F014C05EC05F3FECF3983EB2
S1130270DCF3869577956795B795F795E7959F5F36
S1130280C1F7FE2B880F911D9695879597F90895D0
S113029097F99F6780E870E060E008959FEF80EC35
S11302A0089500240A9416161706180609060895D8
S11302B000240A9412161306140605060895092E3E
S11302C00394000C11F4882352F0BB0F40F4BF2BAD
S11302D011F460FF04C06F5F7F4F8F4F9F4F0895ED
S11302E057FD9058440F551F59F05F3F71F04795E3
S11302F0880F97FB991F61F09F3F79F087950895C8
S1130300121613061406551FF2CF4695F1DF08C0E6
S1130310161617061806991FF1CF86957105610503
S113032008940895E894BB2766277727CB0197F9AB
S113033008950F931F93CF93DF93EC018B010097E4
S113034031F46115710519F480E090E038C06EE075
S113035070E081E090E00E94CA03FC010097A1F3E1
S113036080E883830115110571F01387028781E802
S1130370838380910A0190910B01892B21F4F093DE
S11303800B01E0930A012097C9F0D187C0878381CC
S11303908260838380910C0190910D01892B71F40B
S11303A0F0930D01E0930C0180910E0190910F01E7
S11303B0892B21F4F0930F01E0930E01CF01DF911B
S11303C0CF911F910F910895A0E0B0E0EAEEF1E023
S11303D00C94CA05FE01359661917191AF0180912B
S11303E00C0190910D010E94F801E2E00C94E605E5
S11303F0ACE0B0E0EEEFF1E00C94BA057C016B01E7
S11304008A01FC0117821682838181FFBDC1CE015E
S113041001964C01F7019381F60193FD859193FFB9
S113042081916F01882309F4ABC1853239F493FDBE
S1130430859193FF81916F01853229F4B70190E092
S11304400E942A05E7CF512C312C20E02032A0F461
S11304508B3269F030F4803259F0833269F42061D0
S11304602CC08D3239F0803339F4216026C02260EB
S1130470246023C0286021C027FD27C030ED380F39
S11304803A3078F426FF06C0FAE05F9E300D11245E
S1130490532E13C08AE0389E300D1124332E20626F
S11304A00CC08E3221F426FD6BC1206406C08C364C
S11304B011F4206802C0883641F4F60193FD859159
S11304C093FF81916F018111C1CF982F9F7D955426
S11304D0933028F40C5F1F4FFFE3F9830DC083367C
S11304E031F0833771F0833509F05BC022C0F80125
S11304F0808189830E5F1F4F44244394512C5401FF
S113050015C03801F2E06F0E711CF801A080B180B3
S113051026FF03C0652D70E002C06FEF7FEFC501B9
S11305202C870E941F052C0183012C852F77222EF6
S113053017C03801F2E06F0E711CF801A080B18081
S113054026FF03C0652D70E002C06FEF7FEFC50189
S11305502C870E940D052C012C852068222E8301F6
S113056023FC1BC0832D90E048165906B0F4B70154
S113057080E290E00E942A053A94F4CFF50127FC2A
S1130580859127FE81915F01B70190E00E942A05C1
S113059031103A94F1E04F1A51084114510471F7A3
S11305A0E5C0843611F0893639F5F80127FF07C014
S11305B060817181828193810C5F1F4F08C06081CB
S11305C07181882777FD8095982F0E5F1F4F2F76B6
S11305D0B22E97FF09C090958095709561957F4FD5
S11305E08F4F9F4F2068B22E2AE030E0A4010E9472
S11305F05C05A82EA81844C0853729F42F7EB22E96
S11306002AE030E025C0F22FF97FBF2E8F36C1F0EB
S113061018F4883579F0B4C0803719F0883721F0A0
S1130620AFC02F2F2061B22EB4FE0DC08B2D84607D
S1130630B82E09C024FF0AC09F2F9660B92E06C0A9
S113064028E030E005C020E130E002C020E132E0E3
S1130650F801B7FE07C060817181828193810C5FCC
S11306601F4F06C06081718180E090E00E5F1F4FD4
S1130670A4010E945C05A82EA818FB2DFF77BF2EAD
S1130680B6FE0BC02B2D2E7FA51450F4B4FE0AC069
S1130690B2FC08C02B2D2E7E05C07A2C2B2D03C056
S11306A07A2C01C0752C24FF0DC0FE01EA0DF11D4A
S11306B08081803311F4297E09C022FF06C073941F
S11306C0739404C0822F867809F0739423FD13C0B9
S11306D020FF06C05A2C731418F4530C5718732CAB
S11306E0731468F4B70180E290E02C870E942A0515
S11306F073942C85F5CF731410F4371801C0312C82
S113070024FF12C0B70180E390E02C870E942A05E1
S11307102C8522FF17C021FF03C088E590E002C0AA
S113072088E790E0B7010CC0822F867859F021FD4C
S113073002C080E201C08BE227FD8DE2B70190E0A8
S11307400E942A05A51438F4B70180E390E00E94C2
S11307502A055A94F7CFAA94F401EA0DF11D808179
S1130760B70190E00E942A05A110F5CF332009F4C7
S113077051CEB70180E290E00E942A053A94F6CF68
S1130780F7018681978102C08FEF9FEF2C96E2E1FB
S11307900C94D6050F931F93CF93DF93869F80010C
S11307A0879F100D969F100D1124C8010E94E60327
S11307B0EC01009729F0A80160E070E00E941805A0
S11307C0CE01DF91CF911F910F910895CF93DF93C5
S11307D08230910510F482E090E0E0911201F091F2
S11307E0130120E030E0A0E0B0E0309739F140811F
S11307F0518148175907B8F04817590771F4828195
S11308009381109729F013969C938E9312972CC082
S1130810909313018093120127C02115310531F003
S11308204217530718F0A901DB0101C0EF019A0137
S1130830BD01DF010280F381E02DD7CF2115310501
S1130840F9F0281B390B2430310580F48A819B810F
S11308506115710521F0FB019383828304C0909399
S1130860130180931201FE01329644C0FE01E20F8F
S1130870F31F8193919322503109398328833AC01D
S11308802091100130911101232B41F42091020198
S11308903091030130931101209310012091000144
S11308A0309101012115310541F42DB73EB7409136
S11308B0040150910501241B350BE0911001F091C6
S11308C01101E217F307A0F42E1B3F0B2817390779
S11308D078F0AC014E5F5F4F2417350748F04E0F98
S11308E05F1F50931101409310018193919302C0B3
S11308F0E0E0F0E0CF01DF91CF910895CF93DF9353
S1130900009709F487C0FC01329713821282C091C8
S11309101201D0911301209781F420813181280F95
S1130920391F80911001909111018217930779F575
S1130930F0931101E09310016DC0DE0120E030E07E
S1130940AE17BF0750F412964D915C9113979D0119
S11309504115510509F1DA01F3CFB383A283408134
S11309605181840F951F8A179B0771F48D919C9177
S11309701197840F951F02969183808312968D910F
S11309809C911397938382832115310529F4F09365
S11309901301E09312013EC0D9011396FC93EE9328
S11309A012974D915D91A40FB51FEA17FB0779F4D7
S11309B080819181840F951F0296D90111969C9391
S11309C08E938281938113969C938E931297E0E089
S11309D0F0E08A819B81009719F0FE01EC01F9CFC8
S11309E0CE01029628813981820F931F2091100134
S11309F0309111012817390769F4309729F41092BE
S1130A0013011092120102C013821282D0931101B9
S1130A10C0931001DF91CF910895FC0105906150BE
S1130A2070400110D8F7809590958E0F9F1F089500
S1130A30DC0101C06D9341505040E0F70895FC0182
S1130A406150704001900110D8F7809590958E0FF9
S1130A509F1F08950F931F93CF93DF93182F092F90
S1130A60EB018B8181FD03C08FEF9FEF20C082FFDC
S1130A7010C04E815F812C813D81421753077CF465
S1130A80E881F9819F012F5F3F4F398328831083C9
S1130A9006C0E885F985812F0995892B29F72E81D0
S1130AA03F812F5F3F4F3F832E83812F902FDF9114
S1130AB0CF911F910F910895FA01AA27283051F17F
S1130AC0203181F1E8946F936E7F6E5F7F4F8F4F7B
S1130AD09F4FAF4FB1E03ED0B4E03CD0670F781FDA
S1130AE0891F9A1FA11D680F791F8A1F911DA11DBF
S1130AF06A0F711D811D911DA11D20D009F46894F8
S1130B003F912AE0269F11243019305D3193DEF69F
S1130B10CF010895462F4770405D4193B3E00FD055
S1130B20C9F7F6CF462F4F70405D4A3318F0495D40
S1130B3031FD4052419302D0A9F7EACFB4E0A69523
S1130B409795879577956795BA95C9F70097610545
S1130B50710508959B01AC010A2E0694579547959B
S1130B6037952795BA95C9F7620F731F841F951F90
S1130B70A01D08952F923F924F925F926F927F92A1
S1130B808F929F92AF92BF92CF92DF92EF92FF9299
S1130B900F931F93CF93DF93CDB7DEB7CA1BDB0B45
S1130BA00FB6F894DEBF0FBECDBF09942A883988EA
S1130BB048885F846E847D848C849B84AA84B984F1
S1130BC0C884DF80EE80FD800C811B81AA81B981FD
S1130BD0CE0FD11D0FB6F894DEBF0FBECDBFED0111
S1090BE00895F894FFCF14
S10D0BE6000014012000256C6600D5
S9030000FC
