S01E00004F76696E67315F54544B343135355F4731375F4831372E7372656394
S11300000C9438000C9455000C9455000C94550035
S11300100C9455000C9455000C9455000C94550008
S11300200C9455000C9455000C9455000C945500F8
S11300300C9455000C9455000C9455000C945500E8
S11300400C9455000C9455000C9455000C945500D8
S11300500C9455000C9455000C9455000C945500C8
S11300600C9455000C9455000C9455000C945500B8
S113007011241FBECFEFD4E0DEBFCDBF12E0A0E05D
S1130080B1E0EEEBFCE002C005900D92A830B107A0
S1130090D9F722E0A8E0B2E001C01D92A231B20774
S11300A0E1F70E94DC000C945D060C940000CF92F2
S11300B0DF92EF92FF920F931F93CF93DF938AE027
S11300C091E00E94D4010E9465016C010E946A01C2
S11300D0C0E0D0E000E010E00F2EF0E2EF2EF1E0FF
S11300E0FF2EF02D0E946501FE01F85E80832081C1
S11300F02817A9F099279F938F931F922F93DF932B
S1130100CF93FF92EF920E94C0010F5F1F4F8DB7F4
S11301109EB708960FB6F8949EBF0FBE8DBF21966A
S1130120C11598E0D907F1F6C6010E946A01C0E042
S1130130D0E0E12CF12C0F2EF9E5CF2EF1E0DF2EEB
S1130140F02D0E946501FE01F85E20812817B1F0B0
S113015099279F938F931F922F93DF93CF93DF92CF
S1130160CF920E94C0018FEFE81AF80A8DB79EB7AC
S113017008960FB6F8949EBF0FBE8DBF2196C11589
S113018098E0D907F1F6FF92EF921F930F9386E957
S113019091E09F938F930E94C0010F900F900F9056
S11301A00F900F900F90DF91CF911F910F91FF90BF
S11301B0EF90DF90CF9008958FE190E00E94FC00D3
S11301C085B7806885BF8FEF8ABBD898D99A319A52
S11301D0399A39980E9457000E9407018DEE91E0E8
S11301E00E94D401FBCF5D9BFECF8CB908955F9B29
S11301F0FECF8CB190E0089590BD89B988E18AB9A9
S113020067EF70E083EF90E00E9475010895CF934B
S113021089EF91E00E94D4010E94F700C82F88233F
S1130220D9F30E94F300C935B9F7CF9108958F929D
S11302309F92AF92BF92CF92DF92EF92FF92CF93B1
S1130240DF93EC01688179818A819B816115710555
S11302508105910521F464E279ED8BE597E02DE1C8
S113026033EF41E050E00E94C30549015A019B016C
S1130270AC01A7EAB1E40E94E2056B017C01ACEE9B
S1130280B4EFA50194010E94F005C60ED71EE81E26
S1130290F91EF7FE06C081E0C81AD108E10880E81B
S11302A0F80AC882D982EA82FB82C6019F77DF916D
S11302B0CF91FF90EF90DF90CF90BF90AF909F9041
S11302C08F9008950E941701089580E091E00E94A4
S11302D017010895A0E0B0E080930001909301011C
S11302E0A0930201B093030108950F931F93CF933A
S11302F0DF93EC018B01009731F46115710519F45A
S113030080E090E038C06EE070E081E090E00E9410
S1130310D303FC010097A1F380E883830115110541
S113032071F01387028781E883838091080290919A
S11303300902892B21F4F0930902E0930802209723
S1130340C9F0D187C08783818260838380910A0248
S113035090910B02892B71F4F0930B02E0930A0243
S113036080910C0290910D02892B21F4F0930D02DF
S1130370E0930C02CF01DF91CF911F910F9108956B
S1130380A0E0B0E0E6ECF1E00C940506FE01359641
S113039061917191AF0180910A0290910B020E94C8
S11303A00102E2E00C9421060F931F93CF93DF9395
S11303B0E0910A02F0910B02238121FF1BC0EC01A2
S11303C000E010E0899160910A0270910B02DB0158
S11303D01896ED91FC911997882331F00995892B92
S11303E089F30FEF1FEFEECF8AE00995892B11F403
S11303F0C80102C08FEF9FEFDF91CF911F910F9142
S11304000895ACE0B0E0E7E0F2E00C94F5057C017F
S11304106B018A01FC0117821682838181FFBDC1B1
S1130420CE0101964C01F7019381F60193FD85916C
S113043093FF81916F01882309F4ABC1853239F4AC
S113044093FD859193FF81916F01853229F4B70162
S113045090E00E943305E7CF512C312C20E020326C
S1130460A0F48B3269F030F4803259F0833269F4AD
S113047020612CC08D3239F0803339F4216026C0DC
S11304802260246023C0286021C027FD27C030EDEE
S1130490380F3A3078F426FF06C0FAE05F9E300D3C
S11304A01124532E13C08AE0389E300D1124332EAC
S11304B020620CC08E3221F426FD6BC1206406C07C
S11304C08C3611F4206802C0883641F4F60193FD9D
S11304D0859193FF81916F018111C1CF982F9F7DE9
S11304E09554933028F40C5F1F4FFFE3F9830DC03C
S11304F0833631F0833771F0833509F05BC022C055
S1130500F801808189830E5F1F4F44244394512C4A
S1130510540115C03801F2E06F0E711CF801A0807F
S1130520B18026FF03C0652D70E002C06FEF7FEF3E
S1130530C5012C870E9428052C0183012C852F7767
S1130540222E17C03801F2E06F0E711CF801A08052
S1130550B18026FF03C0652D70E002C06FEF7FEF0E
S1130560C5012C870E9416052C012C852068222E9B
S1130570830123FC1BC0832D90E048165906B0F478
S1130580B70180E290E00E9433053A94F4CFF5017C
S113059027FC859127FE81915F01B70190E00E94BD
S11305A0330531103A94F1E04F1A510841145104C3
S11305B071F7E5C0843611F0893639F5F80127FF63
S11305C007C060817181828193810C5F1F4F08C0D5
S11305D060817181882777FD8095982F0E5F1F4F6A
S11305E02F76B22E97FF09C09095809570956195EE
S11305F07F4F8F4F9F4F2068B22E2AE030E0A40136
S11306000E946505A82EA81844C0853729F42F7EBA
S1130610B22E2AE030E025C0F22FF97FBF2E8F36AC
S1130620C1F018F4883579F0B4C0803719F08837F0
S113063021F0AFC02F2F2061B22EB4FE0DC08B2D40
S11306408460B82E09C024FF0AC09F2F9660B92E7B
S113065006C028E030E005C020E130E002C020E11F
S113066032E0F801B7FE07C0608171818281938115
S11306700C5F1F4F06C06081718180E090E00E5FC7
S11306801F4FA4010E946505A82EA818FB2DFF7713
S1130690BF2EB6FE0BC02B2D2E7FA51450F4B4FE36
S11306A00AC0B2FC08C02B2D2E7E05C07A2C2B2D3F
S11306B003C07A2C01C0752C24FF0DC0FE01EA0D85
S11306C0F11D8081803311F4297E09C022FF06C008
S11306D07394739404C0822F867809F0739423FD75
S11306E013C020FF06C05A2C731418F4530C571867
S11306F0732C731468F4B70180E290E02C870E9495
S1130700330573942C85F5CF731410F4371801C096
S1130710312C24FF12C0B70180E390E02C870E94A3
S113072033052C8522FF17C021FF03C088E590E024
S113073002C088E790E0B7010CC0822F867859F098
S113074021FD02C080E201C08BE227FD8DE2B701EA
S113075090E00E943305A51438F4B70180E390E0DB
S11307600E9433055A94F7CFAA94F401EA0DF11DBF
S11307708081B70190E00E943305A110F5CF3320AA
S113078009F451CEB70180E290E00E9433053A9417
S1130790F6CFF7018681978102C08FEF9FEF2C96E9
S11307A0E2E10C9411060F931F93CF93DF93869F7E
S11307B08001879F100D969F100D1124C8010E947F
S11307C0EF03EC01009729F0A80160E070E00E94BB
S11307D02105CE01DF91CF911F910F910895CF9301
S11307E0DF938230910510F482E090E0E0911002F2
S11307F0F091110220E030E0A0E0B0E0309739F150
S11308004081518148175907B8F04817590771F4C6
S113081082819381109729F013969C938E9312975B
S11308202CC0909311028093100227C0211531052A
S113083031F04217530718F0A901DB0101C0EF01A1
S11308409A01BD01DF010280F381E02DD7CF21158C
S11308503105F9F0281B390B2430310580F48A81E5
S11308609B816115710521F0FB019383828304C090
S11308709093110280931002FE01329644C0FE014F
S1130880E20FF31F81939193225031093983288316
S11308903AC020910E0230910F02232B41F4209193
S11308A006013091070130930F0220930E0220912C
S11308B00401309105012115310541F42DB73EB7EE
S11308C04091080150910901241B350BE0910E025F
S11308D0F0910F02E217F307A0F42E1B3F0B281729
S11308E0390778F0AC014E5F5F4F2417350748F0A5
S11308F04E0F5F1F50930F0240930E02819391930A
S113090002C0E0E0F0E0CF01DF91CF910895CF93F2
S1130910DF93009709F487C0FC0132971382128297
S1130920C0911002D0911102209781F4208131816D
S1130930280F391F80910E0290910F02821793079E
S113094079F5F0930F02E0930E026DC0DE0120E012
S113095030E0AE17BF0750F412964D915C91139797
S11309609D014115510509F1DA01F3CFB383A28347
S113097040815181840F951F8A179B0771F48D91D3
S11309809C911197840F951F0296918380831296F0
S11309908D919C911397938382832115310529F4BA
S11309A0F0931102E09310023EC0D9011396FC9318
S11309B0EE9312974D915D91A40FB51FEA17FB07B3
S11309C079F480819181840F951F0296D901119643
S11309D09C938E938281938113969C938E9312970A
S11309E0E0E0F0E08A819B81009719F0FE01EC01C0
S11309F0F9CFCE01029628813981820F931F20916D
S1130A000E0230910F022817390769F4309729F440
S1130A10109211021092100202C013821282D0931B
S1130A200F02C0930E02DF91CF910895FC0105904F
S1130A30615070400110D8F7809590958E0F9F1FDC
S1130A400895DC0101C06D9341505040E0F70895D2
S1130A50FC016150704001900110D8F78095909589
S1130A608E0F9F1F08950F931F93CF93DF93182F1B
S1130A70092FEB018B8181FD03C08FEF9FEF20C015
S1130A8082FF10C04E815F812C813D814217530744
S1130A907CF4E881F9819F012F5F3F4F39832883DC
S1130AA0108306C0E885F985812F0995892B29F7DC
S1130AB02E813F812F5F3F4F3F832E83812F902FC5
S1130AC0DF91CF911F910F910895FA01AA27283041
S1130AD051F1203181F1E8946F936E7F6E5F7F4F07
S1130AE08F4F9F4FAF4FB1E03ED0B4E03CD0670F83
S1130AF0781F891F9A1FA11D680F791F8A1F911DD6
S1130B00A11D6A0F711D811D911DA11D20D009F425
S1130B1068943F912AE0269F11243019305D319367
S1130B20DEF6CF010895462F4770405D4193B3E050
S1130B300FD0C9F7F6CF462F4F70405D4A3318F0F7
S1130B40495D31FD4052419302D0A9F7EACFB4E0A8
S1130B50A6959795879577956795BA95C9F7009760
S1130B606105710508959B01AC010A2E0694579501
S1130B70479537952795BA95C9F7620F731F841F58
S1130B80951FA01D0895052E97FB1EF400940E9446
S1130B90DA0557FD07D00E942C0607FC03D04EF45B
S1130BA00C94DA0550954095309521953F4F4F4F61
S1130BB05F4F089590958095709561957F4F8F4F05
S1130BC09F4F08950E944E06A59F900DB49F900DCF
S1130BD0A49F800D911D11240895B7FF0C94E20584
S1130BE00E94E205821B930B08952F923F924F922D
S1130BF05F926F927F928F929F92AF92BF92CF92A9
S1130C00DF92EF92FF920F931F93CF93DF93CDB7B1
S1130C10DEB7CA1BDB0B0FB6F894DEBF0FBECDBF29
S1130C2009942A88398848885F846E847D848C84FA
S1130C309B84AA84B984C884DF80EE80FD800C8103
S1130C401B81AA81B981CE0FD11D0FB6F894DEBFE6
S1130C500FBECDBFED010895A1E21A2EAA1BBB1B46
S1130C60FD010DC0AA1FBB1FEE1FFF1FA217B30774
S1130C70E407F50720F0A21BB30BE40BF50B661F8A
S1130C80771F881F991F1A9469F76095709580954E
S1130C9090959B01AC01BD01CF010895A29FB001C5
S1130CA0B39FC001A39F700D811D1124911DB29F9C
S1110CB0700D811D1124911D0895F894FFCF3D
S1130CBE0100000000001202200053746172746976
S1130CCE6E67205352414D20746573742E2E2E0080
S1130CDE5772697465207068617365206572726FEE
S1130CEE723A206578745F72616D5B2534645D20A1
S1130CFE3D2025303258202873686F756C6420624D
S1130D0E652025303258290A005265747269657659
S1130D1E616C207068617365206572726F723A201F
S1130D2E6578745F72616D5B2534645D203D2025AA
S1130D3E303258202873686F756C642062652025E4
S1130D4E303258290A005352414D20746573742071
S1130D5E636F6D706C6574656420776974680A25B9
S1130D6E3464206572726F727320696E20777269B3
S1130D7E746520706861736520616E640A2534643D
S1130D8E206572726F727309696E2072657472696E
S1130D9E6576616C2070686173650A0A00706C6117
S1130DAE6365686F6C646572007475726E206F662D
S10B0DBE663F20592F4E00008E
S9030000FC
