S01E00004F76696E67315F54544B343135355F4731375F4831372E7372656394
S11300000C9438000C9493000C94EF000C9455005D
S11300100C9455000C9455000C9455000C94550008
S11300200C9455000C9455000C9455000C945500F8
S11300300C9455000C9455000C9455000C945500E8
S11300400C9455000C9455000C9455000C945500D8
S11300500C9455000C9455000C9455000C945500C8
S11300600C9455000C9455000C9455000C945500B8
S113007011241FBECFEFD4E0DEBFCDBF13E0A0E05C
S1130080B1E0ECE6F6E102C005900D92AE35B107A1
S1130090D9F723E0AEE5B3E001C01D92A437B2075F
S11300A0E1F70E94C0030C94340B0C9400008230DE
S11300B0910571F01CF4019739F01CC0833091054F
S11300C059F0049769F016C084E1809300140BC0C2
S11300D085E18093001407C086E18093001403C077
S11300E087E18093001482E58A95F1F780910014EA
S11300F090E0089580E090E00895BA9ABB9A85B79D
S1130100816085BF85B7826085BF85B7846085BF00
S113011085B7886085BF8BB780648BBF8BB78068D9
S11301208BBF789408951F920F920FB60F921124EB
S1130130EF92FF920F931F932F933F934F935F93ED
S11301406F937F938F939F93AF93BF93CF93DF93DB
S1130150EF93FF938AE091E09F938F930E94970619
S113016082E50E941202F82EE92E8CE40E9412020B
S1130170182F092F89E50E941202C82FD92F88E56C
S11301800E941202EF92FF920F931F93DF93CF937B
S11301909F938F9383E391E09F938F930E9497069D
S11301A08DB79EB70C960FB6F8949EBF0FBE8DBF49
S11301B0FF91EF91DF91CF91BF91AF919F918F917B
S11301C07F916F915F914F913F912F911F910F916B
S11301D0FF90EF900F900FBE0F901F9018951F92F5
S11301E00F920FB60F9211242F933F934F935F9367
S11301F06F937F938F939F93AF93BF93EF93FF93EB
S11302008CE491E00E94AB06FF91EF91BF91AF9116
S11302109F918F917F916F915F914F913F912F911A
S11302200F900FBE0F901F9018950F931F93CF93AD
S1130230DF93C4E6D0E0009168031091690381E084
S113024090E00E94570001581F4F081B190B109390
S1130250690300936803009166031091670382E0C9
S113026090E00E94570001581F4F081B190B109370
S113027067030093660321972097E9F6809168034A
S11302809091690324E630E0B9010E94C605709399
S11302906903609368038091660390916703B901D1
S11302A00E94C6057093670360936603DF91CF9144
S11302B01F910F9108952F923F924F925F926F92E8
S11302C07F928F929F92AF92BF92CF92DF92EF92E2
S11302D0FF920F931F93CF93DF9300D000D000D0F1
S11302E0CDB7DEB73C017A8369835C834B833E835D
S11302F02D8318018501B901882777FD8095982FF2
S11303000E94D7044B015C01B3016E0D7F1D29814E
S11303103A81621B730B882777FD8095982F0E9482
S1130320D7042B013C01B1018D819E81681B790B9F
S1130330882777FD8095982F0E94D7049B01AC01F4
S1130340C301B2010E9463052B013C016B817C81D6
S1130350E981FA816E1B7F0B882777FD8095982FA2
S11303600E94D7049B01AC01C301B2010E943C046A
S11303709B01AC01C501B4010E94D8030E94A404EE
S1130380C101801B910B6817790774F58D819E81DB
S1130390800F911F861797074CF5F80111230CF471
S11303A03196F595E795D80112C08A0F9B1FAC01D1
S11303B04E0F5F1F6417750714F069010BC0C60167
S11303C08E1B9F0B8617970714F0C01AD10AC6011B
S11303D0801B910B9601200F311F621773072CF7B6
S11303E08617970714F704C0610102C0CD80DE8030
S11303F0C60126960FB6F894DEBF0FBECDBFDF91BF
S1130400CF911F910F91FF90EF90DF90CF90BF900D
S1130410AF909F908F907F906F905F904F903F90A0
S11304202F900895AF92BF92CF92DF92EF92FF92F6
S11304300F931F93823509F474C020F48C3409F4AB
S11304404EC091C0883519F0893529F18CC0C0900F
S11304506403D0906503E0906803F090690381E041
S113046090E00E9457000F2EFAE0AF2EB12CF02D31
S113047004E610E02CE93FEF4FEF50E060E070E05D
S11304800E945B01909365038093640380916403ED
S1130490909165036AC0C0906203D0906303E090BA
S11304A06603F090670382E090E00E9457000F2EED
S11304B0FAE0AF2EB12CF02D04E610E02CE93FEF6A
S11304C04FEF50E060E070E00E945B0190936303A3
S11304D080936203809162039091630346C0C0904D
S11304E06003D090610383E090E00E9457000F2ED8
S11304F0FAE0AF2EB12CF02DE12CF12C04E610E043
S113050020E030E04FEF50E060E070E00E945B01DB
S113051090936103809360038091600390916103E1
S113052024C0C0905E03D0905F0384E090E00E94FA
S113053057000F2EFAE0AF2EB12CF02DE12CF12C48
S113054004E610E020E030E04FEF50E060E070E0BF
S11305500E945B0190935F0380935E0380915E032E
S113056090915F0302C080E090E01F910F91FF9093
S1130570EF90DF90CF90BF90AF9008950E94150147
S113058088E50E941202909365038093640389E5D1
S11305900E94120290936303809362038CE40E948E
S11305A01202909361038093600382E50E94120219
S11305B090935F0380935E032091660330916703F9
S11305C080916803909169033F932F939F938F9336
S11305D080E691E09F938F930E94970660915E035B
S11305E070915F0340916003509161032091620315
S11305F03091630380916403909165037F936F93BB
S11306005F934F933F932F939F938F9389E891E048
S11306109F938F930E9497068DB79EB740960FB60F
S1130620F8949EBF0FBE8DBF0895CF92DF92EF92D4
S1130630FF920F931F93CF93DF9382EB91E00E947D
S1130640AB060E943C066C010E944106C0E0D0E06B
S113065000E010E00F2EF8ECEF2EF1E0FF2EF02D6D
S11306600E943C06FE01F85E808320812817A9F0D1
S113067099279F938F931F922F93DF93CF93FF928A
S1130680EF920E9497060F5F1F4F8DB79EB7089693
S11306900FB6F8949EBF0FBE8DBF2196C11598E08A
S11306A0D907F1F6C6010E944106C0E0D0E0E12C72
S11306B0F12C0F2EF1E0CF2EF2E0DF2EF02D0E9470
S11306C03C06FE01F85E20812817B1F099279F931C
S11306D08F931F922F93DF93CF93DF92CF920E9439
S11306E097068FEFE81AF80A8DB79EB708960FB6EB
S11306F0F8949EBF0FBE8DBF2196C11598E0D9070F
S1130700F1F6FF92EF921F930F938EE392E09F9383
S11307108F930E9497060F900F900F900F900F9059
S11307200F90DF91CF911F910F91FF90EF90DF9089
S1130730CF9008958FE190E00E94CC0385E992E088
S11307400E94AB0685B7806885BF0E94BE0285EC17
S113075092E00E94AB060E9415038EEE92E00E9486
S1130760AB060E947D008CE093E00E94AB0680E320
S113077093E00E94AB0685E493E00E94AB060895E3
S11307800E949A03FFCF5D9BFECF8CB908955F9BB7
S1130790FECF8CB190E0089590BD89B988E18AB903
S11307A067EC73E083EC93E00E944C060895505884
S11307B0BB27AA270ED04DC13ED130F043D120F043
S11307C031F49F3F11F41EF433C10EF4E095E7FBBE
S11307D029C1E92F4FD180F3BA1762077307840741
S11307E0950718F071F49EF567C10EF4E0950B2E91
S11307F0BA2FA02D0B01B90190010C01CA01A0016F
S11308001124FF27591B99F0593F50F4503E68F1C9
S11308101A16F040A22F232F342F4427585FF3CF0A
S1130820469537952795A795F0405395C9F77EF4DB
S11308301F16BA0B620B730B840BBAF09150A1F024
S1130840FF0FBB1F661F771F881FC2F70EC0BA0FAA
S1130850621F731F841F48F4879577956795B79532
S1130860F7959E3F08F0B3CF9395880F08F099272A
S1130870EE0F9795879508950CD0EBC0E3D040F028
S1130880DAD030F021F45F3F19F0CCC0511115C11A
S1130890CFC0F0D098F39923C9F35523B1F3951B36
S11308A0550BBB27AA2762177307840738F09F5F8D
S11308B05F4F220F331F441FAA1FA9F333D00E2EFC
S11308C03AF0E0E830D091505040E695001CCAF769
S11308D029D0FE2F27D0660F771F881FBB1F26172E
S11308E037074807AB07B0E809F0BB0B802DBF0101
S11308F0FF2793585F4F2AF09E3F510568F092C03E
S1130900DCC05F3FECF3983EDCF386957795679502
S1130910B795F7959F5FC9F7880F911D96958795B1
S113092097F90895E1E0660F771F881FBB1F6217D0
S113093073078407BA0720F0621B730B840BBA0B8E
S1130940EE1F88F7E095089504D06894B111B5C0FE
S1130950089598D088F09F5790F0B92F9927B751F0
S1130960A0F0D1F0660F771F881F991F1AF0BA956F
S1130970C9F712C0B13081F09FD0B1E008959CC096
S1130980672F782F8827B85F39F0B93FCCF3869565
S113099077956795B395D9F73EF4909580957095C2
S11309A061957F4F8F4F9F4F0895E89409C097FB3F
S11309B03EF490958095709561957F4F8F4F9F4F32
S11309C09923A9F0F92F96E9BB279395F695879576
S11309D077956795B795F111F8CFFAF4BB0F11F439
S11309E060FF1BC06F5F7F4F8F4F9F4F16C08823E0
S11309F011F096E911C0772321F09EE8872F762F16
S1130A0005C0662371F096E8862F70E060E02AF056
S1130A109A95660F771F881FDAF7880F9695879542
S1130A2097F9089597F99F6780E870E060E008956A
S1130A309FEF80EC089500240A94161617061806F2
S1130A400906089500240A941216130614060506CE
S1130A500895092E0394000C11F4882352F0BB0F5F
S1130A6040F4BF2B11F460FF04C06F5F7F4F8F4FC2
S1130A709F4F089557FD9058440F551F59F05F3FFD
S1130A8071F04795880F97FB991F61F09F3F79F0AC
S1130A9087950895121613061406551FF2CF46952E
S1130AA0F1DF08C0161617061806991FF1CF8695B0
S1130AB07105610508940895E894BB276627772794
S1130AC0CB0197F908950BD0C4CFB5DF28F0BADF76
S1130AD018F0952309F0A6CFABCF1124EECFCADFCF
S1130AE0A0F3959FD1F3950F50E0551F629FF0013D
S1130AF0729FBB27F00DB11D639FAA27F00DB11D96
S1130B00AA1F649F6627B00DA11D661F829F22271E
S1130B10B00DA11D621F739FB00DA11D621F839FA5
S1130B20A00D611D221F749F3327A00D611D231F7B
S1130B30849F600D211D822F762F6A2F11249F57C9
S1130B4050408AF0E1F088234AF0EE0FFF1FBB1FEC
S1130B50661F771F881F91505040A9F79E3F51058B
S1130B6070F060CFAACF5F3FECF3983EDCF386953C
S1130B7077956795B795F795E7959F5FC1F7FE2B36
S1130B80880F911D9695879597F9089597FB072EE1
S1130B9016F4009407D077FD09D00E94DA0507FC0B
S1130BA005D03EF4909581959F4F08957095619579
S1130BB07F4F0895AA1BBB1B51E107C0AA1FBB1F8F
S1130BC0A617B70710F0A61BB70B881F991F5A95D5
S1130BD0A9F780959095BC01CD0108958F929F92BD
S1130BE0AF92BF92CF92DF92EF92FF92CF93DF93B7
S1130BF0EC01688179818A819B8161157105810588
S1130C00910521F464E279ED8BE597E02DE133EF72
S1130C1041E050E00E949A0A49015A019B01AC014B
S1130C20A7EAB1E40E94B90A6B017C01ACEEB4EF0F
S1130C30A50194010E94C70AC60ED71EE81EF91E1C
S1130C40F7FE06C081E0C81AD108E10880E8F80A76
S1130C50C882D982EA82FB82C6019F77DF91CF9155
S1130C60FF90EF90DF90CF90BF90AF909F908F90C8
S1130C7008950E94EE05089580E091E00E94EE053B
S1130C800895A0E0B0E08093000190930101A09347
S1130C900201B093030108950F931F93CF93DF9341
S1130CA0EC018B01009731F46115710519F480E0B2
S1130CB090E038C06EE070E081E090E00E94AA0805
S1130CC0FC010097A1F380E883830115110571F0FD
S1130CD01387028781E8838380916A0390916B0371
S1130CE0892B21F4F0936B03E0936A032097C9F0F6
S1130CF0D187C08783818260838380916C039091C4
S1130D006D03892B71F4F0936D03E0936C03809170
S1130D106E0390916F03892B21F4F0936F03E0939A
S1130D206E03CF01DF91CF911F910F910895A0E041
S1130D30B0E0EDE9F6E00C94DC0AFE013596619131
S1130D407191AF0180916C0390916D030E94D8065C
S1130D50E2E00C94F80A0F931F93CF93DF93E09192
S1130D606C03F0916D03238121FF1BC0EC0100E0B3
S1130D7010E0899160916C0370916D03DB0118960A
S1130D80ED91FC911997882331F00995892B89F30A
S1130D900FEF1FEFEECF8AE00995892B11F4C801FC
S1130DA002C08FEF9FEFDF91CF911F910F910895B4
S1130DB0ACE0B0E0EEEDF6E00C94CC0A7C016B0103
S1130DC08A01FC0117821682838181FFBDC1CE0195
S1130DD001964C01F7019381F60193FD859193FFF0
S1130DE081916F01882309F4ABC1853239F493FDF5
S1130DF0859193FF81916F01853229F4B70190E0C9
S1130E000E940A0AE7CF512C312C20E02032A0F4B2
S1130E108B3269F030F4803259F0833269F4206106
S1130E202CC08D3239F0803339F4216026C0226021
S1130E30246023C0286021C027FD27C030ED380F6F
S1130E403A3078F426FF06C0FAE05F9E300D112494
S1130E50532E13C08AE0389E300D1124332E2062A5
S1130E600CC08E3221F426FD6BC1206406C08C3682
S1130E7011F4206802C0883641F4F60193FD85918F
S1130E8093FF81916F018111C1CF982F9F7D95545C
S1130E90933028F40C5F1F4FFFE3F9830DC08336B2
S1130EA031F0833771F0833509F05BC022C0F8015B
S1130EB0808189830E5F1F4F44244394512C540135
S1130EC015C03801F2E06F0E711CF801A080B180EA
S1130ED026FF03C0652D70E002C06FEF7FEFC501F0
S1130EE02C870E94FF092C0183012C852F77222E49
S1130EF017C03801F2E06F0E711CF801A080B180B8
S1130F0026FF03C0652D70E002C06FEF7FEFC501BF
S1130F102C870E94ED092C012C852068222E830148
S1130F2023FC1BC0832D90E048165906B0F4B7018A
S1130F3080E290E00E940A0A3A94F4CFF50127FC7B
S1130F40859127FE81915F01B70190E00E940A0A12
S1130F5031103A94F1E04F1A51084114510471F7D9
S1130F60E5C0843611F0893639F5F80127FF07C04A
S1130F7060817181828193810C5F1F4F08C0608101
S1130F807181882777FD8095982F0E5F1F4F2F76EC
S1130F90B22E97FF09C090958095709561957F4F0B
S1130FA08F4F9F4F2068B22E2AE030E0A4010E94A8
S1130FB03C0AA82EA81844C0853729F42F7EB22EE7
S1130FC02AE030E025C0F22FF97FBF2E8F36C1F022
S1130FD018F4883579F0B4C0803719F0883721F0D7
S1130FE0AFC02F2F2061B22EB4FE0DC08B2D8460B4
S1130FF0B82E09C024FF0AC09F2F9660B92E06C0E0
S113100028E030E005C020E130E002C020E132E019
S1131010F801B7FE07C060817181828193810C5F02
S11310201F4F06C06081718180E090E00E5F1F4F0A
S1131030A4010E943C0AA82EA818FB2DFF77BF2EFE
S1131040B6FE0BC02B2D2E7FA51450F4B4FE0AC09F
S1131050B2FC08C02B2D2E7E05C07A2C2B2D03C08C
S11310607A2C01C0752C24FF0DC0FE01EA0DF11D80
S11310708081803311F4297E09C022FF06C0739455
S1131080739404C0822F867809F0739423FD13C0EF
S113109020FF06C05A2C731418F4530C5718732CE1
S11310A0731468F4B70180E290E02C870E940A0A66
S11310B073942C85F5CF731410F4371801C0312CB8
S11310C024FF12C0B70180E390E02C870E940A0A33
S11310D02C8522FF17C021FF03C088E590E002C0E1
S11310E088E790E0B7010CC0822F867859F021FD83
S11310F002C080E201C08BE227FD8DE2B70190E0DF
S11311000E940A0AA51438F4B70180E390E00E9413
S11311100A0A5A94F7CFAA94F401EA0DF11D8081CA
S1131120B70190E00E940A0AA110F5CF332009F418
S113113051CEB70180E290E00E940A0A3A94F6CFB9
S1131140F7018681978102C08FEF9FEF2C96E2E131
S11311500C94E80A0F931F93CF93DF93869F80012B
S1131160879F100D969F100D1124C8010E94C60878
S1131170EC01009729F0A80160E070E00E94F809F2
S1131180CE01DF91CF911F910F910895CF93DF93FB
S11311908230910510F482E090E0E0917203F091C6
S11311A0730320E030E0A0E0B0E0309739F14081F3
S11311B0518148175907B8F04817590771F48281CB
S11311C09381109729F013969C938E9312972CC0B9
S11311D0909373038093720327C02115310531F076
S11311E04217530718F0A901DB0101C0EF019A016E
S11311F0BD01DF010280F381E02DD7CF2115310538
S1131200F9F0281B390B2430310580F48A819B8145
S11312106115710521F0FB019383828304C09093CF
S1131220730380937203FE01329644C0FE01E20F01
S1131230F31F8193919322503109398328833AC053
S11312402091700330917103232B41F42091060106
S113125030910701309371032093700320910401AE
S1131260309105012115310541F42DB73EB7409168
S1131270080150910901241B350BE0917003F09192
S11312807103E217F307A0F42E1B3F0B281739074D
S113129078F0AC014E5F5F4F2417350748F04E0FCE
S11312A05F1F50937103409370038193919302C025
S11312B0E0E0F0E0CF01DF91CF910895CF93DF9389
S11312C0009709F487C0FC01329713821282C091FF
S11312D07203D0917303209781F420813181280F08
S11312E0391F80917003909171038217930779F5E8
S11312F0F0937103E09370036DC0DE0120E030E0F1
S1131300AE17BF0750F412964D915C9113979D014F
S11313104115510509F1DA01F3CFB383A28340816A
S11313205181840F951F8A179B0771F48D919C91AD
S11313301197840F951F02969183808312968D9145
S11313409C911397938382832115310529F4F0939B
S11313507303E09372033EC0D9011396FC93EE939A
S113136012974D915D91A40FB51FEA17FB0779F40D
S113137080819181840F951F0296D90111969C93C7
S11313808E938281938113969C938E931297E0E0BF
S1131390F0E08A819B81009719F0FE01EC01F9CFFE
S11313A0CE01029628813981820F931F2091700308
S11313B0309171032817390769F4309729F4109292
S11313C073031092720302C013821282D0937103CA
S11313D0C0937003DF91CF910895FC010590615093
S11313E070400110D8F7809590958E0F9F1F089537
S11313F0DC0101C06D9341505040E0F70895FC01B9
S11314006150704001900110D8F7809590958E0F2F
S11314109F1F08950F931F93CF93DF93182F092FC6
S1131420EB018B8181FD03C08FEF9FEF20C082FF12
S113143010C04E815F812C813D81421753077CF49B
S1131440E881F9819F012F5F3F4F398328831083FF
S113145006C0E885F985812F0995892B29F72E8106
S11314603F812F5F3F4F3F832E83812F902FDF914A
S1131470CF911F910F910895FA01AA27283051F1B5
S1131480203181F1E8946F936E7F6E5F7F4F8F4FB1
S11314909F4FAF4FB1E03ED0B4E03CD0670F781F10
S11314A0891F9A1FA11D680F791F8A1F911DA11DF5
S11314B06A0F711D811D911DA11D20D009F468942E
S11314C03F912AE0269F11243019305D3193DEF6D6
S11314D0CF010895462F4770405D4193B3E00FD08C
S11314E0C9F7F6CF462F4F70405D4A3318F0495D77
S11314F031FD4052419302D0A9F7EACFB4E0A6955A
S11315009795879577956795BA95C9F7009761057B
S1131510710508959B01AC010A2E069457954795D1
S113152037952795BA95C9F7620F731F841F951FC6
S1131530A01D0895052E97FB1EF400940E94B10A85
S113154057FD07D00E94030B07FC03D04EF40C9404
S1131550B10A50954095309521953F4F4F4F5F4FBD
S1131560089590958095709561957F4F8F4F9F4F0B
S113157008950E94250BA59F900DB49F900DA49FE4
S1131580800D911D11240895B7FF0C94B90A0E948F
S1131590B90A821B930B08952F923F924F925F9248
S11315A06F927F928F929F92AF92BF92CF92DF926F
S11315B0EF92FF920F931F93CF93DF93CDB7DEB7D4
S11315C0CA1BDB0B0FB6F894DEBF0FBECDBF099468
S11315D02A88398848885F846E847D848C849B84BF
S11315E0AA84B984C884DF80EE80FD800C811B81CD
S11315F0AA81B981CE0FD11D0FB6F894DEBF0FBEFC
S1131600CDBFED010895A1E21A2EAA1BBB1BFD015B
S11316100DC0AA1FBB1FEE1FFF1FA217B307E407CD
S1131620F50720F0A21BB30BE40BF50B661F771F25
S1131630881F991F1A9469F7609570958095909505
S11316409B01AC01BD01CF010895A29FB001B39FDE
S1131650C001A39F700D811D1124911DB29F700DB7
S10F1660811D1124911D0895F894FFCF02
S113166C01000000000074032000526967687420B4
S113167C627574746F6E20707265737365642C205C
S113168C7072696E74696E672076616C7565733AF5
S113169C090900583A20256909593A202569094C49
S11316AC3A20256909523A2025690A004C6566746A
S11316BC20427574746F6E20507265737365640088
S11316CC43616C6962726174696F6E2076616C75CA
S11316DC65733A200963616C5F583A202569096384
S11316EC616C5F593A25690A005265666572656ECC
S11316FC63652056616C7565733A20095820256919
S113170C0959202569094C202569095220256909A4
S113171C0A005374617274696E67205352414D20F0
S113172C746573742E2E2E0057726974652070685C
S113173C617365206572726F723A206578745F729A
S113174C616D5B2534645D203D20253032582028A2
S113175C73686F756C642062652025303258290AD1
S113176C0052657472696576616C2070686173658A
S113177C206572726F723A206578745F72616D5B6A
S113178C2534645D203D2025303258202873686F41
S113179C756C642062652025303258290A00535236
S11317AC414D207465737420636F6D706C65746542
S11317BC6420776974680A253464206572726F72C8
S11317CC7320696E20777269746520706861736523
S11317DC20616E640A253464206572726F72730919
S11317EC696E2072657472696576616C20706861CB
S11317FC73650A0A00494E495449414C495A494EA9
S113180C472E2E2E0A0A5541525420737563636574
S113181C737366756C6C7920696E697469616C6933
S113182C7A65640A00636F6E74726F6C6C20696EF7
S113183C707574207375636365737366756C6C79FA
S113184C20696E697469616C697A65640A00535223
S113185C414D207375636365737366756C6C792085
S113186C696E697469616C697A656400496E746542
S113187C72727570747320737563636573736675B4
S113188C6C6C7920696E697469616C697A65640041
S113189C496E7465727275707473206163746976C1
S11318AC61746564000A494E495449414C495A4192
S11118BC54494F4E20434F4D504C4554450067
S9030000FC
